:020000040800F2
:10000000B8050020010100080918000819170008A8
:1000100005180008BD060008E51B000800000000E8
:100020000000000000000000000000006918000847
:10003000C106000800000000391800089D180008DB
:100040001B0100081B0100081B0100081B01000820
:100050001B0100081B0100081B0100081B01000810
:100060001B0100081B0100081B0100081B01000800
:100070001B0100081B0100081B0100081B010008F0
:100080001B0100081B0100081B0100081B010008E0
:100090001B0100081B0100081B0100081B010008D0
:1000A0001B0100081B0100081B0100081B010008C0
:1000B0001B0100081B0100081B0100081B010008B0
:1000C0001B0100081B0100081B0100081B010008A0
:1000D0001B010008D51B00081B0100081B010008BC
:1000E0001B0100081B0100081B010008DFF80CD0F1
:1000F00000F022F900480047CD1C0008B805002098
:100100000648804706480047FEE7FEE7FEE7FEE7B1
:10011000FEE7FEE7FEE7FEE7FEE7FEE7FD18000864
:10012000ED000008D2B201E000F8012B491EFBD21D
:1001300070470022F6E710B513460A4604461946F2
:10014000FFF7F0FF204610BD30B505462A460B46A6
:1001500012F8010B13F8014B08B1A042F8D01CB102
:10016000002802D06D1CF1E7284630BD421C10F873
:10017000011B0029FBD1801A7047034611F8012B9F
:1001800000F8012B002AF9D1184670470FB400B5CA
:100190008DB010A909900B9000914FF0FF300A909C
:1001A00000200C9005480690054807906A4609A86B
:1001B0000F9900F093F80DB05DF814FBF9020008F8
:1001C000170300082DE9FF5FD2E901A74FF00008EF
:1001D000916999461446DDF838B04646019888473B
:1001E000054659EA0B0005D009E0A169761C019883
:1001F00088470546216A284688470028F5D1681CAB
:1002000003D05FEACA7005D015E04FF0FF3004B0AC
:10021000BDE8F09F2068011D2160D0F800800AE051
:100220005FEACA7001D108F8015BA169761C7F1EE4
:10023000019888470546002F1ADD681C18D0B9F1CF
:10024000000F0DD0E81705EBD060421120F01F0021
:1002500059F822102A1A012090400142E0D107E00B
:10026000BBF1000FDCD1216A284688470028D7D08F
:10027000E16901988847BBF1000F07D1002E05DD29
:100280005FEACA7002D1002188F80010A068B84265
:1002900003DDBBF1000F03D017B16FF00100B6E72B
:1002A0003046B4E730B50B46014600202022012439
:1002B00009E021FA02F59D4205D303FA02F5491B34
:1002C00004FA02F52844151EA2F10102F1DC30BD4A
:1002D000026811441378016018467047D1600449E0
:1002E00051610449116200211161114600F03CB8CE
:1002F000D10200085D030008426842B1016811F8AC
:10030000013B23B1521EC0E900121846704701217B
:10031000C160881E704742685AB1C368016843B91A
:1003200083688B4205D0491E521CC0E90012002090
:1003300070474FF0FF307047064C074D06E0E0680D
:1003400040F0010394E8070098471034AC42F6D31C
:10035000FFF7D0FEE020000800210008C0B24FF4F3
:10036000F05100F097B900002DE9F34F8BB04FF03A
:10037000000801F10C000C464FF0010B46460DF150
:10038000080A01906269012101989047051E2DD04D
:10039000252D2CD0216A8847C0B1626901210198BE
:1003A0009047216A88470028F7D1411E6269019869
:1003B000904700E0761CA1690B988847216A88471E
:1003C0000028F7D1E1690B988847DBE7A1690B9812
:1003D00088470746A84201D1761CD3E7E1690B980C
:1003E00088477F1C02D1B8F1000F6FD046E100278B
:1003F00062693D463946019890472A2804D16269CE
:100400000121019890470125DFF88492626901215A
:1004100001989047A0F130010A290AD24F45E5DC46
:1004200007EB870100EB4107303FDFD445F01005B3
:10043000ECE7E90601D46FF000476C280AD04C289D
:1004400014D0682815D06A280DD074281CD07A28BA
:100450001AD01DE062690121019890476C2802D0F2
:1004600045F0040514E045F002050DE045F02005D7
:100470000AE06269012101989047682802D045F09E
:10048000080505E045F4006562690121019890477F
:10049000C4E9015765283DD019DC58287AD00CDC16
:1004A000452837D004DC252826D0412831D131E039
:1004B00046282FD047282CD12CE05B2877D0612804
:1004C00028D063287CD0642823D15AE0D0E06F285C
:1004D00048D008DC66281DD067281BD0692821D0A9
:1004E0006E2816D127E0702845D0732868D075286B
:1004F00047D078280DD14DE0A1690B988847054673
:1005000025283FF469AFE1690B9888476D1C3FF4DB
:100510006AAFB3E023466A466FF001000B99AFF370
:1005200000809EE045F040006060A80723464FF041
:10053000000236D43EE0E8077FF447AF2068011D93
:1005400021600068290501D506701BE7290701D540
:10055000068017E7A90703D5F117C0E9006111E785
:1005600006600FE745F040006060A80723464FF0A3
:10057000080216D41EE040F60E0125EA0100606074
:1005800016E045F040006060A80723464FF00A02DD
:1005900007D40FE045F040006060A80708D5234667
:1005A00010226FF001000B99AFF3008059E007E0D3
:1005B000234610226FF001000B99AFF3008050E04A
:1005C0004FF000094F464B46632802D05B2806D007
:1005D00040E0E80601D40120A06001273AE062690A
:1005E0000121019890475E2805D14FF00109626909
:1005F000494601989047216939B900210A46534676
:1006000043F82120491C0829FADBB0B3216969B9F4
:10061000C11700EBD16253110AEB830122F01F02D4
:10062000821A01200B68904003430B60626901212C
:10063000019890475D28E8D1B9F1000F09D000205A
:10064000514651F82020D24341F82020401C082870
:10065000F7DB02AB224600976FF001000B99FFF722
:10066000B1FD00280CDA401C08D1BBF1000F05D009
:100670004FF0FF300DB0BDE8F08FFFE74046F9E7DF
:10068000E90701D108F1010806444FF0000B79E6B3
:10069000CCCCCC0C7F2801D9002208E0064A02EB22
:1006A0005002C007127800D1120902F00F02012097
:1006B000904008407047000066200008FEE70000F8
:1006C00070470000EFF3108072B600BFFEE7000035
:1006D000B0B542F2D304C0F600041DA0214601F0DB
:1006E0006BFB05461CA01FA101F066FB45EA400517
:1006F0001EA0214601F060FB45EA80051EA02146B0
:1007000001F05AFB45EAC00542F2BE00C0F6000007
:10071000214601F051FB45EA00151CA0214601F0DD
:100720004BFB45EA4010C0B23F38B0FA80F04409B4
:1007300001F032FB40F2180040F2B111C2F20000A9
:10074000C2F20001012200F06BFF2046B0BD00BFE5
:10075000415445300D0A000041542B4353510D0ABA
:10076000000000002B4353510000000041542B4374
:100770004D47463D310D0A0041542B434E4D493DF6
:10078000322C312C302C302C300D0A00415426579D
:100790000D0A000010B542F2BE0042F2D301C0F6CD
:1007A0000000C0F6000101F007FB0446002818BF56
:1007B000012401F0F1FA204610BD0000F0B5B1B0FF
:1007C00040F24C15C2F2000523A12846FFF7BCFCFD
:1007D000007BA0F1300401F0DFFAE4B20DF106066F
:1007E0001FA13046224601F039FB42F2D807C0F67D
:1007F00000073046394601F0DFFA28463946FFF750
:10080000A3FC08B32CAE0DF192070DF12E0518A133
:1008100032463B460095FFF7B9FC40F2A800C2F211
:1008200000002946FFF7A9FC40F22C10C2F200009C
:100830003146FFF7A2FC40F20C10C2F2000039462C
:10084000FFF79BFC01F0A8FA092C03D1FFF7A2FFE8
:1008500001F0A2FA31B0F0BD2B434D54493A0000EB
:1008600041542B434D47523D25640D0A00000000C2
:10087000252A5B5E2C5D2C22255B5E225D222C25C9
:100880002A5B5E2C5D2C22255B5E225D220D0A25F3
:100890005B5E0D5D00000000B0B59AB001AD0A4688
:1008A000044610A1284601F0D9FA12A1284601F009
:1008B00083FA88B101AD10A1284622461A2301F01F
:1008C000CDFA0FA1284601F077FA0446002818BF98
:1008D000012401F061FA02E001F05EFA00242046F2
:1008E0001AB0B0BD41542B434D47533D22257322CE
:1008F0000D0A00000D0A3E0025732563000000006C
:100900002B434D4753000000014690F82100022878
:1009100013D10868D1E90FC3026822F00E02026009
:10092000026822F001020260012000FA03F2CCF812
:10093000042081F82100002002E0042088630120C7
:10094000002281F82020704780B590F821100229FC
:1009500023D10268116821F00E0111602F21136864
:10096000C4F202018A4240F20401C4F2020123F0FF
:100970000103136016DD3023C4F202039A421DD036
:100980004423C4F202039A421BD05823C4F2020348
:100990009A421BD14FF4803320E00421816301216E
:1009A000084680BD0823C4F202039A420CD01C23DF
:1009B000C4F202039A4209D110230FE04FF480736E
:1009C0000CE04FF4805309E0012307E001F1680CCB
:1009D0004FF08073624508BF4FF480130B60012114
:1009E00080F82110426B002180F820100AB1904756
:1009F0000021084680BD0000B0B5044600F014F99F
:100A0000054640F21200C2F200000078611C18BFD7
:100A1000044400BF00F008F9401BA042FAD3B0BD67
:100A20002DE9F04F82B00E68002E00F0F38041F205
:100A30000042C4F20102042340F2004E904208BF7B
:100A400003234FF6FF7CC4F2010E00930024012320
:100A5000C1F2100C4FF0000A4FF0000941E00125EF
:100A600004F00C030F279F402BEA070705FA03F356
:100A70003B4342F826304E6840F20C45F202DEF865
:100A8000082054BF22EA080242EA0802C4F2010523
:100A9000CEF808202A68B30254BF22EA080242EACC
:100AA00008022A60B303DEF8042054BF22EA0802D9
:100AB00042EA0802F303CEF80420DEF800204FF0EB
:100AC000010354BF22EA080242EA0802CEF80020DD
:100AD0000E680AF1010A36FA0AF204F1040400F081
:100AE000998003FA0AFB16EA0B08F1D04A686245BE
:100AF00010DC122A50D8DFE802F0330A41454F4F8C
:100B00004F4F4F4F4F4F4F4F4F4F4F484C00D1F823
:100B10000C9041E04FF6FF75C1F22105AA420FDCAF
:100B20000025C1F21105AA421AD00025C1F2120512
:100B3000AA4215D00025C1F22105AA4210D02BE00F
:100B40000025C1F22205AA420AD00025C1F23105D2
:100B5000AA4205D00025C1F23205AA421CD100BF2D
:100B60008A6842B1012A14BFC0F814B0C0F810B0AE
:100B70004FF0080910E04FF004090DE0CA6802F1D7
:100B8000080909E04FF0000906E0CA6802F104090B
:100B900002E0CA6802F10C0922460546B8F5807FDA
:100BA00024BF203A04352E680F279740BE4309FA28
:100BB00002F232432A60CA79D2067FF589AF41F248
:100BC0001803C4F202031A684FEA9A0642F00102BF
:100BD0001A601A6840F6000302F001020192019ABD
:100BE000AEF57E7252F826B0C4F2010398420FD0DF
:100BF00040F60043C4F2010398423FF430AF41F2A3
:100C00000003C4F20103009D984208BF022527E7B4
:100C1000002525E702B0BDE8F08F0000002A08BFDC
:100C2000090401617047000040F2B410C2F20000F4
:100C30000068704740F2120040F2B411C2F20000A6
:100C4000C2F2000100780A68104408607047000092
:100C500080B542F20000C4F20200016841F01001C8
:100C60000160032000F066F8002000F005F800F0B5
:100C70002BF8002080BD0000B0B540F21202C2F295
:100C8000000240F200011278C2F200014FF47A73C0
:100C90000968B3FBF2F20446B1FBF2F1084600F03A
:100CA000E7FA0F2C4FF001050CD858B94FF0FF3080
:100CB00021460022002500F02DF840F21400C2F277
:100CC000000004602846B0BD82B041F21800C4F2B2
:100CD00002000168022241F001010160016801F097
:100CE000010101910199416841F0805141604068E2
:100CF00000F08050009000980420C4F201000168C8
:100D000062F31A61016002B07047000080B500F024
:100D10006BFF80BD70B514460D46064600F074FFAB
:100D20002946224600F072FD0146304600F074FF6D
:100D300070BD000080B500F081FF80BD2DE9F0435B
:100D400081B0002800F0898042F20008C4F2020855
:100D50000446D8F800000D4600F0070088420CD287
:100D6000D8F8000020F007002843C8F80000D8F8A1
:100D7000000000F00700A8426FD1206841F204098A
:100D80008107C4F2020917D5410705D5D9F800102B
:100D900041F4E061C9F80010010705D5D9F8001049
:100DA00041F46051C9F80010D9F80010A26821F090
:100DB000F0011143C9F80010C00745D1D8F8000070
:100DC00000F00700A8420CD9D8F8000020F0070076
:100DD0002843C8F80000D8F8000000F00700A84237
:100DE0003BD12068410707D5D9F80010E26821F40B
:100DF000E0611143C9F80010000708D5D9F80000D8
:100E0000216920F4605040EAC100C9F8000000F0F8
:100E100079F8D9F8001042F2A602C1F30311C0F626
:100E20000002515C40F2000220FA01F140F214008D
:100E3000C2F200000068C2F200021160FFF71CFF5E
:100E4000002001B0BDE8F0836068022809D00128C5
:100E500029D159F8041C890307D4012001B0BDE849
:100E6000F08359F8041C8901F7D5D9F8001021F056
:100E700003010843C9F80000FFF7D6FE064641F219
:100E8000883700BFD9F80000616800F00C00B0EBB3
:100E9000810F93D0FFF7C8FE801BB842F2D9032020
:100EA00001B0BDE8F08359F8041C8907D5D5DCE70B
:100EB00040F20000C2F200000068704780B5FFF702
:100EC000F7FF41F20401C4F20201096842F2B602DE
:100ED000C1F30221C0F60002515CC84080BD000091
:100EE00080B5FFF7E5FF41F20401C4F20201096891
:100EF00042F2B602C1F3C221C0F60002515CC84002
:100F000080BD000041F2040CC4F2020CDCF8003099
:100F100003F00C00082841F20020C0F27A0018BF4C
:100F20007047C3F383420AA18A5CD90305D440F613
:100F30000010C0F23D0050437047DCF8001008A3D9
:100F4000C1F34041595C5043B0FBF1F0704700BF22
:100F500002030405060708090A0B0C0D0E0F1010FA
:100F6000010200002DE9F04182B0002800F0C480A9
:100F70000446007841F20006C007C4F2020643D0DE
:100F8000706800F00C00042817D0706800F00C00A6
:100F9000082802D17068C0030FD465682DB1B5F57B
:100FA000A02F10D0B5F5803F11D0306820F48030EC
:100FB0003060306820F480200CE03068800323D556
:100FC000606808BB98E0306840F48020306030688A
:100FD00040F480303060FFF727FE002D054610D02A
:100FE0003068800310D4FFF71FFE401B6428F7D938
:100FF00004E100BFFFF718FE401B64284FF0030018
:1010000077D830688003F5D42078800718D57068C9
:1010100010F00C0F07D0706800F00C00082826D1E3
:101020007068C00323D43068800702D52069012886
:1010300062D13068616920F0F80040EAC100306098
:10104000207800073DD5A06938B30020C4F24220C3
:101050000121C0F88014FFF7E7FD0546706A80079C
:101060002DD4FFF7E1FD401B0228F7D9C6E0206927
:10107000002840F20000C4F2422000F096800121D6
:101080000160FFF7D1FD054630688007D1D4FFF736
:10109000CBFD401B0228F7D9B0E00020C4F242206B
:1010A0000021C0F88014FFF7BFFD0546706A800775
:1010B00007D5FFF7B9FD401B0228F7D99EE000F0E5
:1010C000BDFB207840071BD4E5698DB1706800F046
:1010D0000C00082847D1012D0ED07068216A00F459
:1010E00080328A4208D1616A00F47010884203D1CC
:1010F000002002B0BDE8F081012002B0BDE8F0811F
:10110000F06910F0805808D1F06940F08050F0612B
:10111000F06900F080500190019847F20007C4F296
:1011200000073868C00510D4386840F48070386013
:10113000FFF77AFD054600BF3868C00505D4FFF704
:1011400073FD401B6428F7D958E0E5681DB1052DF3
:101150003CD0012D3ED0306A20F001003062306A70
:1011600020F0040039E00027C4F24227002038664E
:10117000FFF75AFD022D05460CD100BF30688001F3
:1011800054D5FFF751FD401B02284FF00300F5D95D
:10119000AFE700BF30688001AAD5FFF745FD401BCF
:1011A00002284FF00300F5D9A3E700210160FFF703
:1011B0003BFD0546306880077FF542AFFFF734FD01
:1011C000401B02284FF00300F4D992E7306A40F048
:1011D00004003062306A40F001003062FFF724FD05
:1011E000002D054641F2883714D000BF306A8007D1
:1011F00013D4FFF719FD401BB842F7D9032002B002
:10120000BDE8F081FFF710FD401BB8424FF003002E
:101210003FF66FAF306A8007F4D4B8F1000F7FF467
:1012200053AFF06920F08050F0614DE7206AB0F5CF
:10123000803F05D17168A26821F4003111437160CB
:101240007168626A21F474111043084370600120D0
:101250003866FFF7E9FC0446306880013FF548AF87
:10126000FFF7E2FC001B02284FF00300F4D940E72F
:1012700080B500F0FBFA80BD7047000070470000A9
:10128000B0B582B0036804461868D9685A6900F09E
:101290002F05202D01F0200505D125B1204600F0B5
:1012A0006BFB02B0B0BD5FEA007C1EBF02F0010E16
:1012B00001F4907212EB0E024AD1226B0840C10673
:1012C0003DD5012A3BD10020019018680190586853
:1012D000019001985869400642D4A08DE18DE28DBD
:1012E000002A1CBF401A5FEA004101D102B0B0BD24
:1012F000216851E8031F226821F4907142E803132A
:10130000002BF5D1216851E8051F226821F0010169
:1013100042E80513002BF5D1202184F8421000216A
:10132000216300BF216851E8031F226821F01001EA
:1013300042E80313002BF5D10221616354E001065A
:1013400058D44006D2D5204600F00AFB02B0B0BD0A
:10135000C20718BF11F4807251D1420755D45BE027
:10136000E06B016849688AB2002ABFD0A38D9A4217
:10137000BCD2E1858069202831D000BF206850E8C8
:10138000030F216820F4807041E80302002AF5D1A0
:10139000206850E8050F216820F0010041E80502AF
:1013A000002AF5D1206850E8050F216820F04000A0
:1013B00041E80502002AF5D1202084F842000020EF
:1013C000206300BF206850E8030F216820F0100060
:1013D00041E80302002AF5D1E06BFFF795FA0220FD
:1013E0006063A08DE18D401A81B22046FFF744FF73
:1013F00002B0B0BD204600F085FB02B0B0BD626C0B
:1014000042F001026264420706D5BEF1000F03D02C
:10141000626C42F002026264820706D5BEF1000FE0
:1014200003D0626C42F004026264BCF1000F06D586
:101430005EEA050203D0626C42F008026264626CEC
:10144000002A3FF453AF0840800602D5204600F042
:1014500093FA20684069616C00F0400001F00801D7
:10146000401827D0204600F053FA20684069400613
:101470001BD500BF206850E8050F216820F0400010
:1014800041E80502002AF5D1E06B70B141F6011187
:10149000C0F600014163FFF757FA00283FF426AF7A
:1014A000E06B416B884702B0B0BD2046FFF7E6FE17
:1014B00002B0B0BD2046FFF7E1FE0020606402B03C
:1014C000B0BD0000002804BF0120704710B50446DD
:1014D00090F8410028B9002084F84000204600F030
:1014E00021F8242084F841002068C16821F40051CB
:1014F000C160204600F0A4FA2068016921F49041FF
:101500000161416921F02A014161C16841F4005142
:10151000C16000202021606484F8411084F84210EA
:10152000606310BD70B586B0006844F20041C4F23B
:101530000001002688420596CDE9036602963FD059
:1015400043F60001C4F20101884266D141F218005D
:10155000C4F20200016840F6000441F480410160D9
:101560000168C4F2010401F480410191019901680C
:1015700002AD41F0040101600068294600F004005A
:10158000019001984FF40070029002200390032014
:1015900005902046FFF744FA4FF480600290002047
:1015A000CDE9030020462946FFF73AFA252000211D
:1015B0000022FFF7AFFB2520FFF7A8FB06B070BDA8
:1015C00041F21800C4F20200416840F6000441F400
:1015D000003141604168C4F2010401F4003101911D
:1015E0000199016802AD41F00401016000682946DB
:1015F00000F0040001900198042002900220039062
:10160000032005902046FFF70BFA0820CDE90206DB
:10161000204629460496FFF703FA06B070BD000085
:1016200010B590F84230202B1CBF022010BD0029BD
:101630004FF0010418BF002A01D1204610BD00243C
:10164000046300F045FA204610BD000040F2180186
:10165000C2F20001884218BF704780B500F0FEFA60
:10166000BDE88040704700002DE9F041044690F845
:10167000410020281CBF0220BDE8F0810E46002951
:101680004FF0010044D01746002A08BFBDE8F081A2
:101690004FF0000821201D46C4F8448084F8410022
:1016A000FFF7C2FAA784E784A1680746B1F5805F17
:1016B0000DD12069002814BF3046B046064606E02A
:1016C00016F8010B21684860E08C0138E084E08C5A
:1016D00080B1204680213A462B4600F03DFA80B981
:1016E000002EEDD138F8020B21686FF35F204860BF
:1016F0000026E9E7204640213A462B4600F02CFA26
:1017000010B10320BDE8F081202084F841000020C2
:10171000BDE8F08170470000FEE7000070B586B0BC
:10172000002541F21800CDE90455CDE90255C4F277
:101730000200016840F6004441F0200101600168A8
:10174000C4F2010401F02001019101990168002215
:1017500041F0040101600168C02601F0040101911B
:101760000199016841F0080101600068C02100F0A2
:101770000800019001982046FFF750FA0120CDE9BA
:1017800003050220059002A920460296FFF748F9BA
:1017900006B070BD80B540F2180043F60001C2F2F9
:1017A0000000C4F2010100234FF00C0C4FF4E132B1
:1017B00080E80E00C0E90333C0E905C3C361FFF749
:1017C00081FE002808BF80BDFEF77CFF80B540F297
:1017D000600044F20041C2F20000C4F200010023A4
:1017E0004FF00C0C4FF4165280E80E00C0E90333A2
:1017F000C0E905C3C361FFF765FE002808BF80BDCF
:10180000FEF760FFFEE70000FEE7000000F00700C3
:1018100080F00703042B28BF04234FF0FF3C03385C
:101820000CFA03F338BF0020994381400CFA00F012
:1018300022EA0000084370477047000081B040F280
:101840000000C2F20000006844F6D351C1F2620108
:10185000A0FB0101480A009000BF0098411E00282B
:101860000091F9D101B0704770470000B0B5013860
:101870000024B4EB106F1CBF0120B0BD4EF2100568
:10188000CEF2000568604FF0FF300F2100F0C4F980
:101890000720AC6028602046B0BD000080B5FFF78F
:1018A000C9F980BD70B590B006AC20462821FEF77E
:1018B00040FC0120002506904FF480310A9002265A
:1018C00020460595CDE90355CDE90155CDE907152C
:1018D000CDE90D610F95FFF745FB68B90F20CDE904
:1018E000010601A80021CDE903550595FFF726FA69
:1018F000002804BF10B070BDFEF7E4FE7047000082
:1019000080B5406A0021C185C184FFF7B7FC80BD66
:10191000016851E8031F026821F4907142E8031343
:10192000002BF5D1016851E8051F026821F0010183
:1019300042E80513002BF5D1016B01290AD100BF44
:10194000016851E8031F026821F0100142E8031307
:10195000002BF5D1202180F842100021016370474F
:1019600080B50168CA6822F04002CA60202180F870
:101970004110FFF7CFFE80BD80B582B090F84210D5
:1019800022291ED18268B2F5805F02D10169002947
:101990004AD0816AB2F5805F07D00AB9026922B1E4
:1019A0000268526802F07F0201E0026852680A7021
:1019B0000121826A11448162C18D01390A04C18505
:1019C00001D002B080BD0168CA6822F02002CA605E
:1019D000CA6822F48072CA604A6922F001024A6130
:1019E000202180F8421000214163026B012A23D19B
:1019F000016300BF016851E8031F026821F0100174
:101A000042E80313002BF5D101680A68D20606D517
:101A1000002201920A680192496801910199818D21
:101A2000FFF72AFC02B080BD0168826A49686FF343
:101A30005F2111800221BCE7FFF708FE02B080BDE4
:101A400010B504460068D4E902C22369016921F493
:101A5000405111430161616943EA0C021143C268BC
:101A600041F20C639A431143C1604169A26921F4B8
:101A70004071114343F60002C4F2010290424161F9
:101A800002D0FFF71BFA01E0FFF72AFA626819217A
:101A900048439100B0FBF1F048F21F51C5F2EB1141
:101AA000A0FB01235A096FF0630302FB03003223FA
:101AB00003EB0010A0FB0101F02303EA511320689F
:101AC00003EB0212C1F343111144816010BD000009
:101AD000816200218285C2854164222180F8421002
:101AE000016921B10168CA6842F48072CA60016864
:101AF000486940F001004861C86840F020020020B9
:101B0000CA60704790F84110212923D18168B1F54E
:101B1000805F01D1016931B1016A02684B1C036227
:101B20000978516007E0016A036831F8022B6FF30E
:101B30005F225A600162C18C01390A04C18418BF56
:101B400070470068C16821F08001C160C16841F040
:101B50004001C160704700002DE9F0410446006873
:101B600000680840884202D10020BDE8F0811D468F
:101B70000E4690465F1C04E0206800683040B0428A
:101B8000F2D0002FF8D02DB1FFF74EF8A0EB0800EF
:101B9000A842F1D9206850E8030F216820F4D070E2
:101BA00041E80302002AF5D1206850E8050F2168BA
:101BB00020F0010041E80502002AF5D1202084F838
:101BC000410084F84200002084F840000320BDE872
:101BD000F081000080B540F21800C2F20000FFF76B
:101BE0004FFB80BDFEE70000002848BF704700F0B3
:101BF0001F01012202FA01F14EF200124009CEF259
:101C0000000242F8201070474EF60C50CEF2000051
:101C10000068C0F3022070474EF6145300F00F0224
:101C2000CEF2000309011A4400F16043B0F1FF3F16
:101C3000C8BF03F564421170704700004EF60C51A6
:101C4000CEF200010A684FF6FF031A4060F30A2241
:101C500042F0806040F0FD700860704780B540F24F
:101C6000B01CC2F2000C9CF80010642924BF0021B3
:101C70008CF800109CF8002040F2B111C2F2000173
:101C8000501C0B788CF8000040F24C10C2F200009F
:101C9000835440F21800C2F200000122FFF7C0FC9A
:101CA00080BD0000B0B540F60045C4F20105044611
:101CB000284680210122FEF7B1FF2046FEF79CFE58
:101CC000284680210022FEF7A9FFB0BDFEF7C0FF25
:101CD000FFF7E8FDFFF722FDFFF75CFDFFF776FD5C
:101CE000FEF7F6FC20B14FF4FA60FFF7DBFF03E0EC
:101CF0004FF4FA6000F09EF840F24C1B40F2A80648
:101D000040F22C1740F20409C2F2000B19A5C2F2EE
:101D100000060FF26808C2F200070024C2F20009B0
:101D20000FF2640A0CE000BF30466421FEF701FAAE
:101D3000BC83BC617C613C61FC60BC607C603C60DD
:101D400058462946FEF700FA0028F9D0FEF736FD7E
:101D500030464146FEF7F8F90028E5D038464946B6
:101D6000FEF7F2F90028DFD050464946FEF794FD11
:101D7000DAE700BF2B434D54493A000054657374B1
:101D800020534D5300000000736D7320726563652E
:101D9000697665640000000080B540F2B010C2F2C0
:101DA00000000021017040F24C10C2F200006421DA
:101DB000FEF7BFF980BD0000F0B581B00C460546C6
:101DC000FFF7EAFF284600F01BF840F24C1542F2FC
:101DD0001077C2F200054FF69C7600BF28462146D8
:101DE000FEF7B2F948B932203744FEF705FEBFB21C
:101DF000002FF3D1002001B0F0BD012001B0F0BDF3
:101E0000B0B540F21805C2F2000540F2B111044627
:101E1000C2F2000128460122FFF702FC2046FEF72D
:101E2000A5F982B2284621464FF47A73FFF71CFCCD
:101E3000B0BD0000B0B540F60045C4F2010504464F
:101E4000284640210122FEF7E9FE2046FEF7D4FD98
:101E5000284640210022FEF7E1FEB0BD0FB4084B3A
:101E600010B504A902AA039800F01CF8044602A9C0
:101E7000002000F0F3F8204610BC5DF814FB0000D1
:101E80005D20000802E008C8121F08C1002AFAD12C
:101E900070477047002001E001C1121F002AFBD1EA
:101EA000704700002DE9FF4F8BB09A460F4605465C
:101EB000002606E025280BD052460D9990476D1C50
:101EC000761C28780028F5D10FB03046BDE8F08F99
:101ED0000024A0460122604900E0044315F8013FB8
:101EE000203B02FA03F00842F7D128782E2817D1B8
:101EF00015F8010F44F004042A280ED06FF02F02C9
:101F00002878A0F1300109290AD808EB880102EBF2
:101F1000410100EB01086D1CF2E757F8048B6D1CC2
:101F2000287869283ED006DC0028CDD063280BD065
:101F3000642804D136E0732810D075284BD052465F
:101F40000D999047761C85E017F8040B8DF800007A
:101F500000208DF80100E946012003E057F8049BBA
:101F60004FF0FF3061074FF0000401D40AE0641C19
:101F700044450DDA8442FADB19F804100029F6D141
:101F800006E0641C8442FCDB19F804100029F8D137
:101F9000264404E019F8010B52460D999047641E3F
:101FA000F8D257E001CF4FF00A0B002802DA404286
:101FB0002D2102E0210504D52B218DF824100121CB
:101FC00003E0E10705D02021F7E70DF12009089192
:101FD0000CE00021F9E701CF4FF00A0BF9E7594671
:101FE000FEF760F901F1300209F8012D0028F6D161
:101FF000ADEB090000F1200B600701D44FF00108A0
:10200000D84502DDA8EB0B0000E00020804600244C
:1020100006E009A85246005D0D999047641C761CA5
:1020200008988442F5DB04E0302052460D99904731
:10203000761CB8F10001A8F10108F5DC05E019F8FB
:10204000010B52460D999047761CBBF10001ABF194
:10205000010BF4DC6D1C34E7092801000A68531CED
:102060000B6010707047DDDDDDDDDCBBBBDDDDDD71
:10207000DDDDDDDDDDDD98888888888888887777F4
:10208000777777888888855555566666666666666A
:1020900066666668888883333332222222222222AF
:1020A00022222228888D000000000000000001028A
:1020B000030406070809000000000102030441545C
:1020C0002B434D4744413D2244454C20414C4C223A
:1020D0000D0A004F4B0D0A002B434D4752000000E4
:1020E000002100080000002018000000841E0008E5
:1020F0001821000818000020A0050000941E000808
:102100000024F4002B39383933373839333639392C
:08211000360001001000000080
:04000005080000ED02
:00000001FF
